{
  "contractName": "LipToken",
  "abi": [
    {
      "inputs": [
        {
          "internalType": "string",
          "name": "_name",
          "type": "string"
        },
        {
          "internalType": "string",
          "name": "_symbol",
          "type": "string"
        }
      ],
      "stateMutability": "nonpayable",
      "type": "constructor"
    },
    {
      "anonymous": false,
      "inputs": [
        {
          "indexed": true,
          "internalType": "address",
          "name": "owner",
          "type": "address"
        },
        {
          "indexed": true,
          "internalType": "address",
          "name": "approved",
          "type": "address"
        },
        {
          "indexed": true,
          "internalType": "uint256",
          "name": "tokenId",
          "type": "uint256"
        }
      ],
      "name": "Approval",
      "type": "event"
    },
    {
      "anonymous": false,
      "inputs": [
        {
          "indexed": true,
          "internalType": "address",
          "name": "owner",
          "type": "address"
        },
        {
          "indexed": true,
          "internalType": "address",
          "name": "operator",
          "type": "address"
        },
        {
          "indexed": false,
          "internalType": "bool",
          "name": "approved",
          "type": "bool"
        }
      ],
      "name": "ApprovalForAll",
      "type": "event"
    },
    {
      "anonymous": false,
      "inputs": [
        {
          "indexed": true,
          "internalType": "address",
          "name": "owner",
          "type": "address"
        },
        {
          "indexed": false,
          "internalType": "uint256",
          "name": "id",
          "type": "uint256"
        },
        {
          "indexed": false,
          "internalType": "uint256",
          "name": "dna",
          "type": "uint256"
        }
      ],
      "name": "NewLip",
      "type": "event"
    },
    {
      "anonymous": false,
      "inputs": [
        {
          "indexed": true,
          "internalType": "address",
          "name": "previousOwner",
          "type": "address"
        },
        {
          "indexed": true,
          "internalType": "address",
          "name": "newOwner",
          "type": "address"
        }
      ],
      "name": "OwnershipTransferred",
      "type": "event"
    },
    {
      "anonymous": false,
      "inputs": [
        {
          "indexed": true,
          "internalType": "address",
          "name": "from",
          "type": "address"
        },
        {
          "indexed": true,
          "internalType": "address",
          "name": "to",
          "type": "address"
        },
        {
          "indexed": true,
          "internalType": "uint256",
          "name": "tokenId",
          "type": "uint256"
        }
      ],
      "name": "Transfer",
      "type": "event"
    },
    {
      "inputs": [
        {
          "internalType": "address",
          "name": "to",
          "type": "address"
        },
        {
          "internalType": "uint256",
          "name": "tokenId",
          "type": "uint256"
        }
      ],
      "name": "approve",
      "outputs": [],
      "stateMutability": "nonpayable",
      "type": "function"
    },
    {
      "inputs": [
        {
          "internalType": "address",
          "name": "owner",
          "type": "address"
        }
      ],
      "name": "balanceOf",
      "outputs": [
        {
          "internalType": "uint256",
          "name": "",
          "type": "uint256"
        }
      ],
      "stateMutability": "view",
      "type": "function",
      "constant": true
    },
    {
      "inputs": [
        {
          "internalType": "uint256",
          "name": "tokenId",
          "type": "uint256"
        }
      ],
      "name": "getApproved",
      "outputs": [
        {
          "internalType": "address",
          "name": "",
          "type": "address"
        }
      ],
      "stateMutability": "view",
      "type": "function",
      "constant": true
    },
    {
      "inputs": [
        {
          "internalType": "address",
          "name": "owner",
          "type": "address"
        },
        {
          "internalType": "address",
          "name": "operator",
          "type": "address"
        }
      ],
      "name": "isApprovedForAll",
      "outputs": [
        {
          "internalType": "bool",
          "name": "",
          "type": "bool"
        }
      ],
      "stateMutability": "view",
      "type": "function",
      "constant": true
    },
    {
      "inputs": [
        {
          "internalType": "uint256",
          "name": "",
          "type": "uint256"
        }
      ],
      "name": "lips",
      "outputs": [
        {
          "internalType": "string",
          "name": "name",
          "type": "string"
        },
        {
          "internalType": "uint256",
          "name": "id",
          "type": "uint256"
        },
        {
          "internalType": "uint256",
          "name": "dna",
          "type": "uint256"
        },
        {
          "internalType": "uint8",
          "name": "level",
          "type": "uint8"
        },
        {
          "internalType": "uint8",
          "name": "rarity",
          "type": "uint8"
        }
      ],
      "stateMutability": "view",
      "type": "function",
      "constant": true
    },
    {
      "inputs": [],
      "name": "name",
      "outputs": [
        {
          "internalType": "string",
          "name": "",
          "type": "string"
        }
      ],
      "stateMutability": "view",
      "type": "function",
      "constant": true
    },
    {
      "inputs": [],
      "name": "owner",
      "outputs": [
        {
          "internalType": "address",
          "name": "",
          "type": "address"
        }
      ],
      "stateMutability": "view",
      "type": "function",
      "constant": true
    },
    {
      "inputs": [
        {
          "internalType": "uint256",
          "name": "tokenId",
          "type": "uint256"
        }
      ],
      "name": "ownerOf",
      "outputs": [
        {
          "internalType": "address",
          "name": "",
          "type": "address"
        }
      ],
      "stateMutability": "view",
      "type": "function",
      "constant": true
    },
    {
      "inputs": [],
      "name": "renounceOwnership",
      "outputs": [],
      "stateMutability": "nonpayable",
      "type": "function"
    },
    {
      "inputs": [
        {
          "internalType": "address",
          "name": "from",
          "type": "address"
        },
        {
          "internalType": "address",
          "name": "to",
          "type": "address"
        },
        {
          "internalType": "uint256",
          "name": "tokenId",
          "type": "uint256"
        }
      ],
      "name": "safeTransferFrom",
      "outputs": [],
      "stateMutability": "nonpayable",
      "type": "function"
    },
    {
      "inputs": [
        {
          "internalType": "address",
          "name": "from",
          "type": "address"
        },
        {
          "internalType": "address",
          "name": "to",
          "type": "address"
        },
        {
          "internalType": "uint256",
          "name": "tokenId",
          "type": "uint256"
        },
        {
          "internalType": "bytes",
          "name": "_data",
          "type": "bytes"
        }
      ],
      "name": "safeTransferFrom",
      "outputs": [],
      "stateMutability": "nonpayable",
      "type": "function"
    },
    {
      "inputs": [
        {
          "internalType": "address",
          "name": "operator",
          "type": "address"
        },
        {
          "internalType": "bool",
          "name": "approved",
          "type": "bool"
        }
      ],
      "name": "setApprovalForAll",
      "outputs": [],
      "stateMutability": "nonpayable",
      "type": "function"
    },
    {
      "inputs": [
        {
          "internalType": "bytes4",
          "name": "interfaceId",
          "type": "bytes4"
        }
      ],
      "name": "supportsInterface",
      "outputs": [
        {
          "internalType": "bool",
          "name": "",
          "type": "bool"
        }
      ],
      "stateMutability": "view",
      "type": "function",
      "constant": true
    },
    {
      "inputs": [],
      "name": "symbol",
      "outputs": [
        {
          "internalType": "string",
          "name": "",
          "type": "string"
        }
      ],
      "stateMutability": "view",
      "type": "function",
      "constant": true
    },
    {
      "inputs": [
        {
          "internalType": "uint256",
          "name": "tokenId",
          "type": "uint256"
        }
      ],
      "name": "tokenURI",
      "outputs": [
        {
          "internalType": "string",
          "name": "",
          "type": "string"
        }
      ],
      "stateMutability": "view",
      "type": "function",
      "constant": true
    },
    {
      "inputs": [
        {
          "internalType": "address",
          "name": "from",
          "type": "address"
        },
        {
          "internalType": "address",
          "name": "to",
          "type": "address"
        },
        {
          "internalType": "uint256",
          "name": "tokenId",
          "type": "uint256"
        }
      ],
      "name": "transferFrom",
      "outputs": [],
      "stateMutability": "nonpayable",
      "type": "function"
    },
    {
      "inputs": [
        {
          "internalType": "address",
          "name": "newOwner",
          "type": "address"
        }
      ],
      "name": "transferOwnership",
      "outputs": [],
      "stateMutability": "nonpayable",
      "type": "function"
    },
    {
      "inputs": [],
      "name": "withdraw",
      "outputs": [],
      "stateMutability": "payable",
      "type": "function",
      "payable": true
    },
    {
      "inputs": [
        {
          "internalType": "uint256",
          "name": "_newFee",
          "type": "uint256"
        }
      ],
      "name": "updateFee",
      "outputs": [],
      "stateMutability": "nonpayable",
      "type": "function"
    },
    {
      "inputs": [
        {
          "internalType": "string",
          "name": "_name",
          "type": "string"
        }
      ],
      "name": "createRandomLip",
      "outputs": [],
      "stateMutability": "payable",
      "type": "function",
      "payable": true
    },
    {
      "inputs": [],
      "name": "getLips",
      "outputs": [
        {
          "components": [
            {
              "internalType": "string",
              "name": "name",
              "type": "string"
            },
            {
              "internalType": "uint256",
              "name": "id",
              "type": "uint256"
            },
            {
              "internalType": "uint256",
              "name": "dna",
              "type": "uint256"
            },
            {
              "internalType": "uint8",
              "name": "level",
              "type": "uint8"
            },
            {
              "internalType": "uint8",
              "name": "rarity",
              "type": "uint8"
            }
          ],
          "internalType": "struct LipToken.Lip[]",
          "name": "",
          "type": "tuple[]"
        }
      ],
      "stateMutability": "view",
      "type": "function",
      "constant": true
    }
  ],
  "bytecode": "0x60806040526000600755662386f26fc100006008556064600955670de0b6b3a7640000600a553480156200003257600080fd5b506040516200209c3803806200209c833981016040819052620000559162000272565b8151829082906200006e906000906020850190620000ff565b50805162000084906001906020840190620000ff565b505050620000a16200009b620000a960201b60201c565b620000ad565b505062000318565b3390565b600680546001600160a01b038381166001600160a01b0319831681179093556040519116919082907f8be0079c531659141344cd1fd0a4f28419497f9722a3daafe3b4186f6b6457e090600090a35050565b8280546200010d90620002dc565b90600052602060002090601f0160209004810192826200013157600085556200017c565b82601f106200014c57805160ff19168380011785556200017c565b828001600101855582156200017c579182015b828111156200017c5782518255916020019190600101906200015f565b506200018a9291506200018e565b5090565b5b808211156200018a57600081556001016200018f565b634e487b7160e01b600052604160045260246000fd5b600082601f830112620001cd57600080fd5b81516001600160401b0380821115620001ea57620001ea620001a5565b604051601f8301601f19908116603f01168101908282118183101715620002155762000215620001a5565b816040528381526020925086838588010111156200023257600080fd5b600091505b8382101562000256578582018301518183018401529082019062000237565b83821115620002685760008385830101525b9695505050505050565b600080604083850312156200028657600080fd5b82516001600160401b03808211156200029e57600080fd5b620002ac86838701620001bb565b93506020850151915080821115620002c357600080fd5b50620002d285828601620001bb565b9150509250929050565b600181811c90821680620002f157607f821691505b6020821081036200031257634e487b7160e01b600052602260045260246000fd5b50919050565b611d7480620003286000396000f3fe60806040526004361061012a5760003560e01c806370a08231116100ab57806395d89b411161006f57806395d89b411461032f578063a22cb46514610344578063b88d4fde14610364578063c87b56dd14610384578063e985e9c5146103a4578063f2fde38b146103ed57600080fd5b806370a082311461028c578063715018a6146102ba57806383b5daf7146102cf5780638da5cb5b146102f15780639012c4a81461030f57600080fd5b80633ccfd60b116100f25780633ccfd60b1461020057806342842e0e146102085780635ec163db146102285780636352211e14610259578063698d640c1461027957600080fd5b806301ffc9a71461012f57806306fdde0314610164578063081812fc14610186578063095ea7b3146101be57806323b872dd146101e0575b600080fd5b34801561013b57600080fd5b5061014f61014a36600461171b565b61040d565b60405190151581526020015b60405180910390f35b34801561017057600080fd5b5061017961045f565b60405161015b9190611790565b34801561019257600080fd5b506101a66101a13660046117a3565b6104f1565b6040516001600160a01b03909116815260200161015b565b3480156101ca57600080fd5b506101de6101d93660046117d8565b61058b565b005b3480156101ec57600080fd5b506101de6101fb366004611802565b6106a0565b6101de6106d1565b34801561021457600080fd5b506101de610223366004611802565b61074b565b34801561023457600080fd5b506102486102433660046117a3565b610766565b60405161015b95949392919061183e565b34801561026557600080fd5b506101a66102743660046117a3565b61083c565b6101de610287366004611904565b6108b3565b34801561029857600080fd5b506102ac6102a736600461194d565b61090a565b60405190815260200161015b565b3480156102c657600080fd5b506101de610991565b3480156102db57600080fd5b506102e46109c7565b60405161015b9190611968565b3480156102fd57600080fd5b506006546001600160a01b03166101a6565b34801561031b57600080fd5b506101de61032a3660046117a3565b610aed565b34801561033b57600080fd5b50610179610b1c565b34801561035057600080fd5b506101de61035f366004611a06565b610b2b565b34801561037057600080fd5b506101de61037f366004611a42565b610b36565b34801561039057600080fd5b5061017961039f3660046117a3565b610b6e565b3480156103b057600080fd5b5061014f6103bf366004611abe565b6001600160a01b03918216600090815260056020908152604080832093909416825291909152205460ff1690565b3480156103f957600080fd5b506101de61040836600461194d565b610c56565b60006001600160e01b031982166380ac58cd60e01b148061043e57506001600160e01b03198216635b5e139f60e01b145b8061045957506301ffc9a760e01b6001600160e01b03198316145b92915050565b60606000805461046e90611af1565b80601f016020809104026020016040519081016040528092919081815260200182805461049a90611af1565b80156104e75780601f106104bc576101008083540402835291602001916104e7565b820191906000526020600020905b8154815290600101906020018083116104ca57829003601f168201915b5050505050905090565b6000818152600260205260408120546001600160a01b031661056f5760405162461bcd60e51b815260206004820152602c60248201527f4552433732313a20617070726f76656420717565727920666f72206e6f6e657860448201526b34b9ba32b73a103a37b5b2b760a11b60648201526084015b60405180910390fd5b506000908152600460205260409020546001600160a01b031690565b60006105968261083c565b9050806001600160a01b0316836001600160a01b0316036106035760405162461bcd60e51b815260206004820152602160248201527f4552433732313a20617070726f76616c20746f2063757272656e74206f776e656044820152603960f91b6064820152608401610566565b336001600160a01b038216148061061f575061061f81336103bf565b6106915760405162461bcd60e51b815260206004820152603860248201527f4552433732313a20617070726f76652063616c6c6572206973206e6f74206f7760448201527f6e6572206e6f7220617070726f76656420666f7220616c6c00000000000000006064820152608401610566565b61069b8383610cee565b505050565b6106aa3382610d5c565b6106c65760405162461bcd60e51b815260040161056690611b2b565b61069b838383610e53565b6006546001600160a01b031633146106fb5760405162461bcd60e51b815260040161056690611b7c565b600061070f6006546001600160a01b031690565b6040519091506001600160a01b038216904780156108fc02916000818181858888f19350505050158015610747573d6000803e3d6000fd5b5050565b61069b83838360405180602001604052806000815250610b36565b600b818154811061077657600080fd5b906000526020600020906004020160009150905080600001805461079990611af1565b80601f01602080910402602001604051908101604052809291908181526020018280546107c590611af1565b80156108125780601f106107e757610100808354040283529160200191610812565b820191906000526020600020905b8154815290600101906020018083116107f557829003601f168201915b50505050600183015460028401546003909401549293909290915060ff8082169161010090041685565b6000818152600260205260408120546001600160a01b0316806104595760405162461bcd60e51b815260206004820152602960248201527f4552433732313a206f776e657220717565727920666f72206e6f6e657869737460448201526832b73a103a37b5b2b760b91b6064820152608401610566565b600a543410156108fe5760405162461bcd60e51b8152602060048201526016602482015275151a1948199959481a5cc81b9bdd0818dbdc9c9958dd60521b6044820152606401610566565b61090781610fef565b50565b60006001600160a01b0382166109755760405162461bcd60e51b815260206004820152602a60248201527f4552433732313a2062616c616e636520717565727920666f7220746865207a65604482015269726f206164647265737360b01b6064820152608401610566565b506001600160a01b031660009081526003602052604090205490565b6006546001600160a01b031633146109bb5760405162461bcd60e51b815260040161056690611b7c565b6109c56000611133565b565b6060600b805480602002602001604051908101604052809291908181526020016000905b82821015610ae457838290600052602060002090600402016040518060a0016040529081600082018054610a1e90611af1565b80601f0160208091040260200160405190810160405280929190818152602001828054610a4a90611af1565b8015610a975780601f10610a6c57610100808354040283529160200191610a97565b820191906000526020600020905b815481529060010190602001808311610a7a57829003601f168201915b50505091835250506001828101546020808401919091526002840154604084015260039093015460ff808216606085015261010090910416608090920191909152918352920191016109eb565b50505050905090565b6006546001600160a01b03163314610b175760405162461bcd60e51b815260040161056690611b7c565b600a55565b60606001805461046e90611af1565b610747338383611185565b610b403383610d5c565b610b5c5760405162461bcd60e51b815260040161056690611b2b565b610b6884848484611253565b50505050565b6000818152600260205260409020546060906001600160a01b0316610bed5760405162461bcd60e51b815260206004820152602f60248201527f4552433732314d657461646174613a2055524920717565727920666f72206e6f60448201526e3732bc34b9ba32b73a103a37b5b2b760891b6064820152608401610566565b6000610c0460408051602081019091526000815290565b90506000815111610c245760405180602001604052806000815250610c4f565b80610c2e84611286565b604051602001610c3f929190611bb1565b6040516020818303038152906040525b9392505050565b6006546001600160a01b03163314610c805760405162461bcd60e51b815260040161056690611b7c565b6001600160a01b038116610ce55760405162461bcd60e51b815260206004820152602660248201527f4f776e61626c653a206e6577206f776e657220697320746865207a65726f206160448201526564647265737360d01b6064820152608401610566565b61090781611133565b600081815260046020526040902080546001600160a01b0319166001600160a01b0384169081179091558190610d238261083c565b6001600160a01b03167f8c5be1e5ebec7d5bd14f71427d1e84f3dd0314c0f7b2291e5b200ac8c7c3b92560405160405180910390a45050565b6000818152600260205260408120546001600160a01b0316610dd55760405162461bcd60e51b815260206004820152602c60248201527f4552433732313a206f70657261746f7220717565727920666f72206e6f6e657860448201526b34b9ba32b73a103a37b5b2b760a11b6064820152608401610566565b6000610de08361083c565b9050806001600160a01b0316846001600160a01b03161480610e2757506001600160a01b0380821660009081526005602090815260408083209388168352929052205460ff165b80610e4b5750836001600160a01b0316610e40846104f1565b6001600160a01b0316145b949350505050565b826001600160a01b0316610e668261083c565b6001600160a01b031614610eca5760405162461bcd60e51b815260206004820152602560248201527f4552433732313a207472616e736665722066726f6d20696e636f72726563742060448201526437bbb732b960d91b6064820152608401610566565b6001600160a01b038216610f2c5760405162461bcd60e51b8152602060048201526024808201527f4552433732313a207472616e7366657220746f20746865207a65726f206164646044820152637265737360e01b6064820152608401610566565b610f37600082610cee565b6001600160a01b0383166000908152600360205260408120805460019290610f60908490611bf6565b90915550506001600160a01b0382166000908152600360205260408120805460019290610f8e908490611c0d565b909155505060008181526002602052604080822080546001600160a01b0319166001600160a01b0386811691821790925591518493918716917fddf252ad1be2c89b69c2b068fc378daa952ba7f163c4a11628f55a4df523b3ef91a4505050565b6000610ffc600954611387565b9050600061100b600854611387565b6040805160a08101825285815260075460208083019190915291810183905260016060820181905260ff86166080830152600b80549182018155600052815180519495509193849360049092027f0175b7a638427703f0dbe7bb9bbf987a2551717b34e79f33b5b1008d1fa01db9019261108992849291019061166c565b50602082015160018201556040820151600282015560608201516003909101805460809093015160ff9081166101000261ffff199094169216919091179190911790556007546110da9033906113dc565b600754604080519182526020820184905233917f24d2d558f98bdd9d21339e119fc0b03e213c7d05affd838ac2ee136d90e3bbeb910160405180910390a26007805490600061112883611c25565b919050555050505050565b600680546001600160a01b038381166001600160a01b0319831681179093556040519116919082907f8be0079c531659141344cd1fd0a4f28419497f9722a3daafe3b4186f6b6457e090600090a35050565b816001600160a01b0316836001600160a01b0316036111e65760405162461bcd60e51b815260206004820152601960248201527f4552433732313a20617070726f766520746f2063616c6c6572000000000000006044820152606401610566565b6001600160a01b03838116600081815260056020908152604080832094871680845294825291829020805460ff191686151590811790915591519182527f17307eab39ab6107e8899845ad3d59bd9653f200f220920489ca2b5937696c31910160405180910390a3505050565b61125e848484610e53565b61126a848484846113f6565b610b685760405162461bcd60e51b815260040161056690611c3e565b6060816000036112ad5750506040805180820190915260018152600360fc1b602082015290565b8160005b81156112d757806112c181611c25565b91506112d09050600a83611ca6565b91506112b1565b60008167ffffffffffffffff8111156112f2576112f2611878565b6040519080825280601f01601f19166020018201604052801561131c576020820181803683370190505b5090505b8415610e4b57611331600183611bf6565b915061133e600a86611cba565b611349906030611c0d565b60f81b81838151811061135e5761135e611cce565b60200101906001600160f81b031916908160001a905350611380600a86611ca6565b9450611320565b60008042336040516020016113b892919091825260601b6bffffffffffffffffffffffff1916602082015260340190565b60408051601f1981840301815291905280516020909101209050610c4f8382611cba565b6107478282604051806020016040528060008152506114f7565b60006001600160a01b0384163b156114ec57604051630a85bd0160e11b81526001600160a01b0385169063150b7a029061143a903390899088908890600401611ce4565b6020604051808303816000875af1925050508015611475575060408051601f3d908101601f1916820190925261147291810190611d21565b60015b6114d2573d8080156114a3576040519150601f19603f3d011682016040523d82523d6000602084013e6114a8565b606091505b5080516000036114ca5760405162461bcd60e51b815260040161056690611c3e565b805181602001fd5b6001600160e01b031916630a85bd0160e11b149050610e4b565b506001949350505050565b611501838361152a565b61150e60008484846113f6565b61069b5760405162461bcd60e51b815260040161056690611c3e565b6001600160a01b0382166115805760405162461bcd60e51b815260206004820181905260248201527f4552433732313a206d696e7420746f20746865207a65726f20616464726573736044820152606401610566565b6000818152600260205260409020546001600160a01b0316156115e55760405162461bcd60e51b815260206004820152601c60248201527f4552433732313a20746f6b656e20616c7265616479206d696e746564000000006044820152606401610566565b6001600160a01b038216600090815260036020526040812080546001929061160e908490611c0d565b909155505060008181526002602052604080822080546001600160a01b0319166001600160a01b03861690811790915590518392907fddf252ad1be2c89b69c2b068fc378daa952ba7f163c4a11628f55a4df523b3ef908290a45050565b82805461167890611af1565b90600052602060002090601f01602090048101928261169a57600085556116e0565b82601f106116b357805160ff19168380011785556116e0565b828001600101855582156116e0579182015b828111156116e05782518255916020019190600101906116c5565b506116ec9291506116f0565b5090565b5b808211156116ec57600081556001016116f1565b6001600160e01b03198116811461090757600080fd5b60006020828403121561172d57600080fd5b8135610c4f81611705565b60005b8381101561175357818101518382015260200161173b565b83811115610b685750506000910152565b6000815180845261177c816020860160208601611738565b601f01601f19169290920160200192915050565b602081526000610c4f6020830184611764565b6000602082840312156117b557600080fd5b5035919050565b80356001600160a01b03811681146117d357600080fd5b919050565b600080604083850312156117eb57600080fd5b6117f4836117bc565b946020939093013593505050565b60008060006060848603121561181757600080fd5b611820846117bc565b925061182e602085016117bc565b9150604084013590509250925092565b60a08152600061185160a0830188611764565b602083019690965250604081019390935260ff918216606084015216608090910152919050565b634e487b7160e01b600052604160045260246000fd5b600067ffffffffffffffff808411156118a9576118a9611878565b604051601f8501601f19908116603f011681019082821181831017156118d1576118d1611878565b816040528093508581528686860111156118ea57600080fd5b858560208301376000602087830101525050509392505050565b60006020828403121561191657600080fd5b813567ffffffffffffffff81111561192d57600080fd5b8201601f8101841361193e57600080fd5b610e4b8482356020840161188e565b60006020828403121561195f57600080fd5b610c4f826117bc565b60006020808301818452808551808352604092508286019150828160051b87010184880160005b838110156119f857603f19898403018552815160a081518186526119b582870182611764565b838b0151878c0152898401518a88015260608085015160ff908116918901919091526080948501511693909601929092525050938601939086019060010161198f565b509098975050505050505050565b60008060408385031215611a1957600080fd5b611a22836117bc565b915060208301358015158114611a3757600080fd5b809150509250929050565b60008060008060808587031215611a5857600080fd5b611a61856117bc565b9350611a6f602086016117bc565b925060408501359150606085013567ffffffffffffffff811115611a9257600080fd5b8501601f81018713611aa357600080fd5b611ab28782356020840161188e565b91505092959194509250565b60008060408385031215611ad157600080fd5b611ada836117bc565b9150611ae8602084016117bc565b90509250929050565b600181811c90821680611b0557607f821691505b602082108103611b2557634e487b7160e01b600052602260045260246000fd5b50919050565b60208082526031908201527f4552433732313a207472616e736665722063616c6c6572206973206e6f74206f6040820152701ddb995c881b9bdc88185c1c1c9bdd9959607a1b606082015260800190565b6020808252818101527f4f776e61626c653a2063616c6c6572206973206e6f7420746865206f776e6572604082015260600190565b60008351611bc3818460208801611738565b835190830190611bd7818360208801611738565b01949350505050565b634e487b7160e01b600052601160045260246000fd5b600082821015611c0857611c08611be0565b500390565b60008219821115611c2057611c20611be0565b500190565b600060018201611c3757611c37611be0565b5060010190565b60208082526032908201527f4552433732313a207472616e7366657220746f206e6f6e20455243373231526560408201527131b2b4bb32b91034b6b83632b6b2b73a32b960711b606082015260800190565b634e487b7160e01b600052601260045260246000fd5b600082611cb557611cb5611c90565b500490565b600082611cc957611cc9611c90565b500690565b634e487b7160e01b600052603260045260246000fd5b6001600160a01b0385811682528416602082015260408101839052608060608201819052600090611d1790830184611764565b9695505050505050565b600060208284031215611d3357600080fd5b8151610c4f8161170556fea2646970667358221220ee391dbf0180a28ee0dce4a69af5a5a704888c534582326d201828accf47c6e964736f6c634300080e0033",
  "immutableReferences": {},
  "source": "// SPDX-License-Identifier: MIT\r\n\r\npragma solidity ^0.8.0;\r\n\r\nimport \"@openzeppelin/contracts/token/ERC721/ERC721.sol\";\r\nimport \"@openzeppelin/contracts/access/Ownable.sol\";\r\n\r\ncontract LipToken is ERC721, Ownable {\r\n    uint256 COUNTER = 0;\r\n    uint256 DNA_MOD = 10**16;\r\n    uint256 RARITY_MOD = 100;\r\n\r\n    uint256 fee = 1 ether;\r\n\r\n    struct Lip {\r\n        string name;\r\n        uint256 id;\r\n        uint256 dna;\r\n        uint8 level;\r\n        uint8 rarity;\r\n    }\r\n\r\n    Lip[] public lips;\r\n\r\n    event NewLip(address indexed owner, uint256 id, uint256 dna);\r\n\r\n    constructor(string memory _name, string memory _symbol)\r\n    ERC721(_name, _symbol) {}\r\n\r\n    // Helper\r\n    function _createRandomNum(uint256 _mod) internal view returns(uint256){\r\n        uint256 randomNum = uint256(keccak256(abi.encodePacked(block.timestamp, msg.sender)));\r\n\r\n        return randomNum % _mod;\r\n    }\r\n\r\n    function withdraw() external payable onlyOwner() {\r\n        address payable _owner = payable(owner());\r\n        _owner.transfer(address(this).balance);\r\n    }\r\n\r\n    function updateFee(uint256 _newFee) external onlyOwner() {\r\n        fee = _newFee;\r\n    }\r\n\r\n    // Create a lip\r\n    function _createLip(string memory _name) internal {\r\n\r\n        uint8 rarity = uint8(_createRandomNum(RARITY_MOD));\r\n        uint256 dna = _createRandomNum(DNA_MOD);\r\n\r\n        Lip memory newLip = Lip(_name, COUNTER, dna, 1, rarity);\r\n        lips.push(newLip);\r\n\r\n        _safeMint(msg.sender, COUNTER);\r\n        emit NewLip(msg.sender, COUNTER, dna);\r\n        COUNTER++;\r\n    }\r\n\r\n    function createRandomLip(string memory _name) public payable {    \r\n        require(msg.value >= fee, \"The fee is not correct\");\r\n        _createLip(_name);\r\n    }\r\n\r\n    // Get all lips\r\n    function getLips() public view returns(Lip[] memory) {\r\n        return lips;\r\n    }\r\n}",
  "sourcePath": "C:\\School\\CNM\\nft-game\\contracts\\LipToken.sol",
  "compiler": {
    "name": "solc",
    "version": "0.8.14+commit.80d49f37.Emscripten.clang"
  },
  "schemaVersion": "3.4.7",
  "updatedAt": "2022-05-18T13:06:48.908Z",
  "networkType": "ethereum",
  "devdoc": {
    "kind": "dev",
    "methods": {
      "approve(address,uint256)": {
        "details": "See {IERC721-approve}."
      },
      "balanceOf(address)": {
        "details": "See {IERC721-balanceOf}."
      },
      "getApproved(uint256)": {
        "details": "See {IERC721-getApproved}."
      },
      "isApprovedForAll(address,address)": {
        "details": "See {IERC721-isApprovedForAll}."
      },
      "name()": {
        "details": "See {IERC721Metadata-name}."
      },
      "owner()": {
        "details": "Returns the address of the current owner."
      },
      "ownerOf(uint256)": {
        "details": "See {IERC721-ownerOf}."
      },
      "renounceOwnership()": {
        "details": "Leaves the contract without owner. It will not be possible to call `onlyOwner` functions anymore. Can only be called by the current owner. NOTE: Renouncing ownership will leave the contract without an owner, thereby removing any functionality that is only available to the owner."
      },
      "safeTransferFrom(address,address,uint256)": {
        "details": "See {IERC721-safeTransferFrom}."
      },
      "safeTransferFrom(address,address,uint256,bytes)": {
        "details": "See {IERC721-safeTransferFrom}."
      },
      "setApprovalForAll(address,bool)": {
        "details": "See {IERC721-setApprovalForAll}."
      },
      "supportsInterface(bytes4)": {
        "details": "See {IERC165-supportsInterface}."
      },
      "symbol()": {
        "details": "See {IERC721Metadata-symbol}."
      },
      "tokenURI(uint256)": {
        "details": "See {IERC721Metadata-tokenURI}."
      },
      "transferFrom(address,address,uint256)": {
        "details": "See {IERC721-transferFrom}."
      },
      "transferOwnership(address)": {
        "details": "Transfers ownership of the contract to a new account (`newOwner`). Can only be called by the current owner."
      }
    },
    "version": 1
  },
  "userdoc": {
    "kind": "user",
    "methods": {},
    "version": 1
  }
}